:020000040800F2
:10000000100E00200101000831330008D130000833
:100010002D330008A1100008953C000800000000E6
:100020000000000000000000000000003D36000855
:10003000D11000080000000069330008C53700082F
:100040001B0100081B0100081B010008F134000817
:100050001B0100081B0100081B0100081B01000810
:100060001B010008D5100008E11000081B01000862
:100070001B0100081B0100081B0100081B010008F0
:100080001B0100081B0100081B0100081B010008E0
:100090001B0100081B0100081B010008ED100008EF
:1000A0001B0100081B0100081B0100081B010008C0
:1000B0001B0100081B0100084D3800081B01000847
:1000C0001B0100081B0100081B0100081B010008A0
:1000D0001B010008753C0008853C00081B01000856
:1000E0001B010008993300081B010008DFF80CD041
:1000F00000F000FE00480047993D0008100E002067
:100100000648804706480047FEE7FEE7FEE7FEE7B1
:10011000FEE7FEE7FEE7FEE7FEE7FEE749380008F8
:10012000ED000008D2B201E000F8012B491EFBD21D
:1001300070470022F6E710B513460A4604461946F2
:10014000FFF7F0FF204610BD10B5044604E00B7821
:1001500000F8013B03B1491C521EF8D2204610BDE5
:10016000421C10F8011B0029FBD1801A704703467E
:1001700011F8012B00F8012B002AF9D1184670471D
:1001800030B505460020034600E05B1C934205D2D3
:10019000EC5CC85C201A01D1002CF6D130BD000007
:1001A0000FB400B58DB010A909900B9000914FF0DD
:1001B000FF300A9000200C900548069005480790F3
:1001C0006A4609A80F9900F055FC0DB05DF814FBC4
:1001D000910A0008AF0A00082DE9FF5F1D464FF0A5
:1001E000FF3BD5E9014691465F464FF00008A969FB
:1001F0007F1C01988847296A824688470028F6D1E3
:10020000BAF1FF3F0CD024F4C064002E19DD600663
:1002100014D5BAF12B0F09D0BAF12D0F0ED103E08E
:10022000584604B0BDE8F09F44F48064A9697F1C7F
:1002300001988847761E8246002E02DDBAF1300F03
:1002400003D0B9F1000F26D032E0A969761E44F43C
:1002500000747F1C019888478246002E05DDBAF1A4
:10026000780F06D0BAF1580F03D0B9F1000F10D0B3
:100270001EE0B9F1000F02D0B9F1100F18D1A96931
:10028000761E24F400747F1C019888478246102053
:1002900002E0082000E00A20814609E008FB090886
:1002A000A969761E44F400747F1C01988847824631
:1002B000002E05DD4946504600F0C8FB0028EDDA67
:1002C000E96901988847A00502D46FF00100A8E70A
:1002D000E00725D1600613D5600502D5C8F10000FE
:1002E00000E0404629680A1D2A600968220501D5F8
:1002F000087015E0220701D5088011E008600FE0C2
:100300002868011D29600068210502D580F8008059
:1003100006E0210702D5A0F8008001E0C0F80080C7
:1003200038467EE72DE9FF5FD2E901A74FF00008CC
:10033000916999461446DDF838B0464601988847D9
:10034000054659EA0B0005D009E0A169761C019821
:1003500088470546216A284688470028F5D1681C49
:1003600003D05FEACA7005D015E04FF0FF3004B04B
:10037000BDE8F09F2068011D2160D0F800800AE0F0
:100380005FEACA7001D108F8015BA169761C7F1E83
:10039000019888470546002F1ADD681C18D0B9F16E
:1003A000000F0DD0E81705EBD060421120F01F00C0
:1003B00059F822102A1A012090400142E0D107E0AA
:1003C000BBF1000FDCD1216A284688470028D7D02E
:1003D000E16901988847BBF1000F07D1002E05DDC8
:1003E0005FEACA7002D1002188F80010A068B84204
:1003F00003DDBBF1000F03D017B16FF00100B6E7CA
:100400003046B4E72DE9FF4F087883B09946FF28BE
:1004100005D0491C2D2804D00024002008E000202D
:100420000BE00124F9E700EB800003EB4000491CDE
:100430000B78FF2BF7D104B14042002302931478CC
:1004400019461D462D2C01D02B2C04D1521C2D2CCD
:1004500013D000240294AA461478FF2C0FD00A254A
:10046000A3FB057801FB05814FF0000C03FB0C1189
:10047000521CE3194AEB0101EEE70124EAE781444B
:1004800053EA010002D019F5C87F06DA039800216B
:10049000C0E9001107B0BDE8F08F0025AE4E2F4631
:1004A000DFF8B882184600F019FCCDE90001B9F177
:1004B000000002DAC9F1000400E004460023A74A64
:1004C0001AEB030B42EB045A12E0E00707D02A466E
:1004D00033463846414600F08FFB074688462A4699
:1004E00033461046194600F087FB05460E46641059
:1004F000002CEAD1DDE90001B9F1000F5A4653465C
:1005000006DA00F0C5F93A46434600F0C1F905E0C5
:1005100000F072FB3A46434600F06EFB029A0AB1C5
:1005200081F00041039AC2E90001B3E72DE9FF4FD2
:100530001F468DB0D7E901464FF0FF382E204546C3
:100540004FF000090B90B9696D1C0E988847396A05
:10055000824688470028F6D1BAF1FF3F0AD024F43A
:10056000D064002E11DDBAF12B0F08D0BAF12D0F97
:100570000BD102E0404611B08DE744F48064B969C4
:100580006D1C0E9888478246761E6946600501D527
:100590002D2000E02B208DF8000001F1010B0DF162
:1005A000200809E0B9696D1C0E98884782460F98AB
:1005B00044F40074761E0560002E02DDBAF1300F9F
:1005C000F0D00B998A453ED144F0800406E00F99A3
:1005D000681CA9F1010944F400740860B9696D1C34
:1005E000761E0E98884782463028F0D02BE00B9973
:1005F0008A4505D1200603D444F08004761E18E015
:10060000504603F0E8FC08B30DF11302761EAAF180
:10061000300044F40074934506D20BF8010B200619
:1006200007D5A9F1010003E0200602D409F1010079
:100630008146A00502D50F99681C0860B9696D1C38
:100640000E9888478246002ED1DC53E0002E51DD03
:10065000BAF1650F02D0BAF1450F4BD1A00549D5CB
:10066000B9696D1C24F44074761E0E988847824642
:10067000002E0CDD2B2804D0BAF12D0F07D144F445
:100680008074B9696D1C0E9888478246761EE00515
:1006900001D52D2100E02B2108F8011BCDF82C807D
:1006A00021E00DF12901761E44F4007488450CD236
:1006B000AAF1300010F0FF0088F8000002D10B9979
:1006C000884509D908F1010806E0E00501D524486C
:1006D00001E042F20F708146B9696D1C0E9888479F
:1006E00082460F980560002E04DD504603F073FC2F
:1006F0000028D6D1F9690E988847FF208BF80000B2
:1007000088F800000020069007904B466A4608A92A
:1007100006A8FFF777FEA00502D46FF001002AE7D4
:1007200014F0240F0AD0E00714D1DDE9061238686E
:10073000031D3B600068C0E900120BE0DDE9060123
:1007400000F037F90146E00704D13868021D3A602D
:100750000068016028460EE7000014400000F03FEA
:10076000F1D8FFFFF0B480EA0102D40F4200B2EBEF
:10077000410F02D20246084611464A0042D0C30D3C
:10078000DDB2C1F3C752AD1A202D35DAC1F316011F
:1007900041F4000204B15242C5F1200602FA06F10A
:1007A0002A411044B3EBD05F23D0C4B1012DA0EB9C
:1007B000C35009DCF0BC4FF0004202EAC352DBB286
:1007C00000F5000000F08DB9400000F1807000EBF2
:1007D000C350A0F1807040EAD170490009E0490897
:1007E00041EAC071A0EBC35000F50000400800EBE7
:1007F000C350F0BC00F06CB96142012202EB410130
:10080000001BF6E7F0BC704781F00041AAE780F0DA
:100810000040A7E730B480EA010202F0004530F062
:10082000004221F0004013D090B1C30DD40DC2F3AB
:100830001601C0F31600E41A41F4000140F400026E
:100840007D34914201D3641C00E04900002C02DA9F
:1008500030BC002070474FF400000023914201D3C8
:10086000891A034340084FEA4101F7D151B191423F
:1008700002D14FF0004105E002D24FF0010101E04A
:100880006FF0010103EBC450284430BC00F020B9E4
:100890002DE9F04D81EA030404F0004B21F00045FE
:1008A00014464FF0000A23F0004150EA050220D020
:1008B00054EA01021DD0C5F30A570246C5F31303DB
:1008C000C1F31300C1F30A5640F4801543F48013BA
:1008D000A7EB0608101BD64608F2FD3873EB05009F
:1008E00002D308F1010801E092185B41B8F1000F52
:1008F00003DA00200146BDE8F08D00204FF480119E
:10090000064684460EE0171B73EB050705D3121B42
:1009100063EB050306434CEA010C49084FEA30003B
:1009200092185B4150EA0107EDD152EA030012D060
:1009300082EA040083EA0501084305D0101BAB419D
:1009400006D20122002306E000224FF0004302E01D
:100950006FF0010253101AEB06004CEB085110EB3C
:100960000A0041EB0B01BDE8F04D00F0E8B8C10F03
:1009700080EAE0700844CA079623002100F0B1B86D
:1009800000F0004220F00040C10DC0F3160040F41A
:1009900000007F2901DA00207047962903DCC1F1AD
:1009A0009601C84001E096398840002AF4D04042C0
:1009B000704701F0004330B421F0004150EA0102D9
:1009C00006D00A0DA2F56072C1F31301002A02DC01
:1009D00030BC00207047440F44EAC104C100E01855
:1009E00030BC00EBC25000F073B82DE9F05F054653
:1009F000002092469B4688460646814640241BE0DE
:100A0000284641464746224600F095F953465A4645
:100A1000C01A914110D311461846224600F07CF9C5
:100A20002D1A67EB01084F4622460120002100F0F5
:100A300073F917EB00094E41201EA4F10104DFDC1D
:100A4000484631462A464346BDE8F09F3A2800D240
:100A5000303820F02002412A01D3A2F13700884229
:100A600001D34FF0FF3070470268114413780160E2
:100A700018467047D1600449516104491162002150
:100A80001161114600F076B9690A0008610D00088D
:100A9000426842B1016811F8013B23B1521EC0E91E
:100AA0000012184670470121C160881E70474268D5
:100AB0005AB1C368016843B983688B4205D0491EA7
:100AC000521CC0E90012002070474FF0FF30704701
:100AD0000029A8BF7047401C490008BF20F0010052
:100AE000704710B4B0FA80FC00FA0CF050EA010430
:100AF00004BF10BC704749B1CCF1200421FA04F4C2
:100B000011FA0CF118BF012121430843A3EB0C019A
:100B1000CB1D4FEA00614FEA102042BF002010BCFD
:100B2000704700EBC35010440029A4BF10BC7047AD
:100B3000401C490008BF20F0010010BC704710B5F0
:100B4000141E73F1000408DA401C41F100019218F0
:100B50005B411A4301D120F0010010BD2DE9F04D99
:100B600092469B4611B1B1FA81F202E0B0FA80F2EE
:100B70002032904600F0D0F804460F4640EA0A00C2
:100B800041EA0B0153465A46084313D0114653EA33
:100B9000010019D0C8F14002504600F0CCF80546DB
:100BA0000E4650465946424600F0B6F8084305D076
:100BB000012004E020463946BDE8F08D00200543C1
:100BC00046EAE0762C4337430A986305E40AA0EB33
:100BD00008000022FD0A44EA47540A3002D50020EA
:100BE0000146E9E7010510196941DDE908450019E9
:100BF0006941BDE8F04DA2E72DE9FE4F81EA03040B
:100C000004F0004421F0004100944FF0000B23F069
:100C1000004350EA01045ED052EA03045BD0C3F300
:100C20000A54C1F30A552C44A4F2F3340194A0FBF6
:100C30000254C1F3130141F48011C3F3130343F4CD
:100C4000801301FB024400FB034E840A970A44EA26
:100C5000815447EA8357A4FB076802958D0A05FB78
:100C600007854FEA932C04FB0C542705029D4FEA9D
:100C7000065847EA1637B5EB08056EEB070C870EEA
:100C8000920E47EA811742EA8312A7FB0201B6EBF4
:100C90000B0164EB00042B0D43EA0C335E1844EBAC
:100CA0001C50DA465146E7FB0201C5F313044FEA34
:100CB0000B3343EA14534FEA0432019C43EA060320
:100CC000A4F10C040294009CCDE900B4FFF746FFA8
:100CD00003B0BDE8F08F00200146F9E70EB540F201
:100CE000334202920022CDE900221346FFF736FF7D
:100CF00003B000BD064C074D06E0E06840F001037C
:100D000094E8070098471034AC42F6D3FFF7F2F9A5
:100D10002C4500084C450008202A04DB203A00FA44
:100D200002F1002070479140C2F1200320FA03F342
:100D3000194390407047202A04DB203A21FA02F040
:100D40000021704721FA02F3D040C2F12002914005
:100D5000084319467047000000487047E8440008FF
:100D600010B50446FFF7F8FF0068005D00F00100D1
:100D700010BD00002DE9F34F8BB04FF0000801F1DA
:100D80000C000C464FF0010B46460DF1080A01908D
:100D90006269012101989047051E2DD0252D2CD088
:100DA000216A8847C0B16269012101989047216A90
:100DB00088470028F7D1411E62690198904700E0FA
:100DC000761CA1690B988847216A88470028F7D1CB
:100DD000E1690B988847DBE7A1690B9888470746CC
:100DE000A84201D1761CD3E7E1690B9888477F1CA4
:100DF00002D1B8F1000F6FD046E1002762693D468D
:100E00003946019890472A2804D162690121019846
:100E100090470125DFF8849262690121019890478B
:100E2000A0F130010A290AD24F45E5DC07EB870122
:100E300000EB4107303FDFD445F01005ECE7E90651
:100E400001D46FF000476C280AD04C2814D06828D1
:100E500015D06A280DD074281CD07A281AD01DE02D
:100E600062690121019890476C2802D045F0040581
:100E700014E045F002050DE045F020050AE0626946
:100E8000012101989047682802D045F0080505E047
:100E900045F400656269012101989047C4E9015752
:100EA00065283DD019DC58287AD00CDC452837D08D
:100EB00004DC252826D0412831D131E046282FD026
:100EC00047282CD12CE05B2877D0612828D06328D4
:100ED0007CD0642823D15AE0D0E06F2848D008DCC9
:100EE00066281DD067281BD0692821D06E2816D10E
:100EF00027E0702845D0732868D0752847D0782817
:100F00000DD14DE0A1690B988847054625283FF48F
:100F100069AFE1690B9888476D1C3FF46AAFB3E095
:100F200023466A466FF001000B99FFF7FFFA9EE037
:100F300045F040006060A80723464FF0000236D419
:100F40003EE0E8077FF447AF2068011D216000689C
:100F5000290501D506701BE7290701D5068017E78B
:100F6000A90703D5F117C0E9006111E706600FE793
:100F700045F040006060A80723464FF0080216D4F1
:100F80001EE040F60E0125EA0100606016E045F023
:100F900040006060A80723464FF00A0207D40FE024
:100FA00045F040006060A80708D5234610226FF086
:100FB00001000B99AFF3008059E007E023461022AF
:100FC0006FF001000B99FFF707F950E04FF00009AF
:100FD0004F464B46632802D05B2806D040E0E80627
:100FE00001D40120A06001273AE062690121019843
:100FF00090475E2805D14FF0010962694946019882
:101000009047216939B900210A46534643F8212007
:10101000491C0829FADBB0B3216969B9C11700EB93
:10102000D16253110AEB830122F01F02821A0120C0
:101030000B68904003430B6062690121019890475F
:101040005D28E8D1B9F1000F09D00020514651F8D0
:101050002020D24341F82020401C0828F7DB02ABB7
:10106000224600976FF001000B99FFF75BF900280B
:101070000CDA401C08D1BBF1000F05D04FF0FF3057
:101080000DB0BDE8F08FFFE74046F9E7E90701D171
:1010900008F1010806444FF0000B79E6CCCCCC0CEB
:1010A000FEE70000B0B5D0E900CED0E90F40012541
:1010B00005FA00F060600846CCF80430BEF1100F6D
:1010C00004BF10460A46CCF80800CCF80C20B0BD8E
:1010D0007047000080B5082000F05AFB80BD00007A
:1010E00080B5102000F054FB80BD000080B54FF4A7
:1010F000007000F04DFB80BDEFF3108072B600BFB2
:10110000FEE7000010B540F6FC10C2F200000078C7
:1011100040F6FD140A28C2F200040BD021784AB22E
:10112000002A07D40132227040F67C12C2F200027B
:10113000505415E040F67C10C2F2000000F02EF989
:1011400028B140F67C10C2F2000000F03DF800200B
:10115000207040F67C10C2F200008021FEF7E9FF0B
:1011600040F6241040F6FC11C2F20000C2F2000169
:10117000012201F0DDFE10BD70B50C460021C4F265
:10118000C8210546FFF746FBFFF7FAFB0646642039
:101190007043FFF7ECFB01462846FFF735FB0021C3
:1011A000C4F27021FFF736FB05463046FFF7DFFB40
:1011B00001462846FFF7D6FA44F00401572908BF34
:1011C00080F0004070BD0000F0B589B054A1062247
:1011D0000446FEF7D5FF88B353A120460622FEF74A
:1011E000CFFF002864D052A120460622FEF7C8FF98
:1011F00000287AD050A120460622FEF7C1FF002821
:1012000054D140F22000C2F2000000F1500100F180
:101210004D0200F1300300F1540700F14C0600F1DB
:101220004805CDE90232049100F1400200F1440387
:1012300043A12046CDE9005605976CE040F2200519
:10124000C2F2000505F1240105F1200205F11C039D
:1012500005F11900CDE9042144F2045105F12C0CEB
:1012600005F1280E05F10C0605F11807CDE902037A
:1012700005F1140205F11003C0F600012046CDE986
:101280000076CDF818E0CDF81CC0FEF789FF0128E4
:101290000CDB297E2869FFF76FFFEA68697E6860CA
:1012A0001046FFF769FF286009B0F0BD09B0F0BD36
:1012B00040F22000C2F2000000F1380700F13401D2
:1012C00000F1300200F1190300F10C0600F11805DD
:1012D000CDE90056CDE90232049100F1140200F18B
:1012E000100326A12046059715E040F22000C2F227
:1012F000000000F1140100F1190200F10C0300F1EB
:101300003C07CDE90032029100F1100200F1180310
:1013100013A120460397FEF743FF09B0F0BD00BFBD
:101320002447504747410000244750524D43000096
:10133000244750474C4C0000244750565447000067
:101340002447505654472C25662C25632C25662CA3
:1013500025632C25662C25632C25662C256300002F
:10136000244750474C4C2C25662C25632C25662C95
:1013700025632C25662C256300000000244750526D
:101380004D432C25662C25662C25632C25662C25A3
:10139000632C25662C25662C25640000B0B582B030
:1013A0000178242913D1437800229BB1022100BF88
:1013B000A1F1010EBEF14A0F0ED82A2B0CD05A40D3
:1013C000435C0131002BF3D1A1F1010E04E04FF099
:1013D000000C1BE04FF0010EBEF14A0F4FF0000C65
:1013E00014D82A2B12D170444478857809A10DF1C4
:1013F000050002F0CDFD9DF805009DF80610604047
:1014000069400843B0FA80F04FEA501C604602B0D1
:10141000B0BD00BF2530325800000000F0B5A1B0CB
:1014200040F27C07C2F200070C46054697F8B80761
:1014300097F85015022801F0FB0087F8500502D0FC
:10144000022000F053F801AE20A2304680212B4646
:1014500002F084FD21A3304642F21071012202F015
:1014600003F90646642000F04BF9012E25D107F25E
:1014700086502946FEF77BFE01AD1A2619A22846A2
:1014800080212346009602F069FD284602F050F9BB
:101490003C2000BF0446000609D04FF47A7000F0EB
:1014A0002FF997F850054007A4F10100F2D5E0B2FA
:1014B000002818BF012021B0F0BD1B20ADF80400AA
:1014C00001A802F035F9002021B0F0BD41542B43B2
:1014D0004D47533D222573220D0A00000D0D0A3E93
:1014E00020000000257325630000000010B582B0C5
:1014F0000446022806D0012C20D10FF27C0C23A038
:1015000025A303E00FF23C0C13A016A34FF47A714D
:101510000222CDF800C002F0A7F801280ED1601E0B
:10152000012808D840F27C00C2F20000022C18BF4B
:10153000012480F8B847012002B010BD002002B09D
:1015400010BD00BF41542B434D47463D310D0D0AA0
:101550004552524F520D0A0041542B434D47463DD0
:10156000310D0A0041542B434D47463D310D0D0AC4
:101570004F4B0D0A0000000041542B434D47463DA0
:10158000300D0D0A4552524F520D0A0041542B4363
:101590004D47463D300D0A0041542B434D47463DD3
:1015A000300D0D0A4F4B0D0A00000000014690F867
:1015B0002100022813D10868D1E90FC3026822F084
:1015C0000E020260026822F001020260012000FAAD
:1015D00003F2CCF8042081F82100002002E004206E
:1015E00088630120002281F82020704780B590F8A0
:1015F0002110022923D10268116821F00E01116027
:101600002F211368C4F202018A4240F20401C4F29D
:10161000020123F00103136015DD3023C4F202033D
:101620009A421CD04423C4F202039A421AD058238F
:10163000C4F202039A421AD14FF480331FE004210E
:101640008163012080BD0823C4F202039A420CD0BA
:101650001C23C4F202039A4209D110230FE04FF475
:1016600080730CE04FF4805309E0012307E001F19F
:10167000680C4FF08073624508BF4FF480130B6015
:10168000416B4FF48072028401B18847002080BD15
:1016900010B5044690F82000012821D094F82100CC
:1016A0004FF0010C012884F820C016D1022084F8E4
:1016B00021000020A063D4F800C0DCF8000020F076
:1016C0000100CCF800002046FFF7ECFC2068E26A3D
:1016D00001683AB141F00E010AE0002084F82000D0
:1016E000022010BD21F004010160016841F00A01EF
:1016F00001602068016841F001010160002010BD17
:10170000B0B5044600F05EF9054640F21600C2F29C
:1017100000000078611C18BF044400BF00F052F9BB
:10172000401BA042FAD3B0BD10B508281AD0B0F5BE
:10173000007F18BF10BD02F0FBFB40F67811C2F22B
:101740000001086040F66B10C2F200000121017038
:1017500040F60040C4F201004FF48071012200F015
:101760002BF910BD40F60040C4F201008021012297
:10177000012400F021F902F0DBFB40F67811C2F2FF
:101780000001086040F68000C2F20000047010BD45
:1017900080B540F21441C4F201010A68024208BF58
:1017A00080BD0860FFF7C0FF80BD00002DE9F04F4D
:1017B00082B00E68002E00F0F38041F20042C4F2C5
:1017C0000102042340F2004E904208BF03234FF66B
:1017D000FF7CC4F2010E009300240123C1F2100C1F
:1017E0004FF0000A4FF0000940E0012504F00C031F
:1017F0000F279F402BEA070705FA03F33B4342F804
:1018000026304E68F203DEF8002054BF22EA0802B8
:1018100042EA0802CEF80020DEF80420B30354BFE9
:1018200022EA080242EA0802CEF80420F302DEF8B7
:10183000082054BF22EA080242EA0802B30240F23A
:101840000C43CEF80820C4F201031A6854BF22EA00
:10185000080242EA08021A6001230E680AF1010A2E
:1018600036FA0AF204F1040400F09A8003FA0AFB43
:1018700016EA0B08F1D04A68624511DC122A51D8E9
:10188000DFE802F0340A4246505050505050505059
:101890005050505050494D00D1F80C9042E000BFDC
:1018A0004FF6FF75C1F22105AA420FDC0025C1F2F7
:1018B0001105AA421AD00025C1F21205AA4215D07C
:1018C0000025C1F22105AA4210D02BE00025C1F26B
:1018D0002205AA420AD00025C1F23105AA4205D04C
:1018E0000025C1F23205AA421CD100BF8A6842B16C
:1018F000012A14BFC0F814B0C0F810B04FF00809A6
:1019000010E04FF004090DE0CA6802F1080909E08F
:101910004FF0000906E0CA6802F1040902E0CA6853
:1019200002F10C0922460546B8F5807F24BF203A13
:1019300004352E680F279740BE4309FA02F232435E
:101940002A60CA79D2067FF588AF41F21803C4F243
:1019500002031A684FEA9A0642F001021A601A68F6
:1019600040F6000302F001020192019AAEF57E7288
:1019700052F826B0C4F2010398420FD040F600435B
:10198000C4F2010398423FF430AF41F20003C4F2C5
:101990000103009D984208BF022527E7002525E79F
:1019A00002B0BDE8F08F0000C26802EA0103914373
:1019B00041EA034101617047002A08BF090401613F
:1019C0007047000040F60820C2F20000006870472F
:1019D00040F2160040F60821C2F20000C2F20001F7
:1019E00000780A68104408607047000080B542F231
:1019F0000000C4F20200016841F010010160032000
:101A000000F06AF8002000F005F800F02BF8002044
:101A100080BD0000B0B540F21602C2F2000240F2F2
:101A200004011278C2F200014FF47A730968B3FB23
:101A3000F2F20446B1FBF2F1084600F0E1FE0F2C91
:101A40004FF001050CD858B94FF0FF302146002265
:101A5000002500F031F840F21800C2F200000460E6
:101A60002846B0BD80B582B041F21800C4F2020031
:101A7000016841F001010160016801F0010101917B
:101A80000199416841F080514160406800F0805008
:101A900000900098042000F01FF80420C4F2010018
:101AA0000168022262F31A61016002B080BD000089
:101AB00080B502F0F1F880BD70B514460D460646BB
:101AC00002F0FAF82946224601F034FC014630467D
:101AD00002F0FAF870BD000080B502F007F980BD91
:101AE0002020C4F20E2001210160704710B547F29A
:101AF0000002C4F2000213684EF6105423F00203F1
:101B000013601368CEF2000423F001031843106041
:101B10002068012940F00400206001D130BF04E0BA
:101B200040BF01F01DFC01F01BFC206820F0040008
:101B3000206010BD80B5012818D0022841D010289F
:101B40003DD141F20401C4F202010A6851F8040CCB
:101B5000C00134D5C2F383402EA3185CD2033FD416
:101B600040F60012C0F23D02504345E041F204004D
:101B7000C4F20200C16940F202320A40B2F5817F2C
:101B800004BF4FF4004080BD01F44071B1F5407FC7
:101B90000DD0B1F5007F12D1026A920744BF49F619
:101BA000404080BDB1F5407F1CBF002080BD50F893
:101BB000040C4FF22441800301EAE07080BD002054
:101BC00080BD00F087F941F20401C4F20201096806
:101BD0000222C1F3813102EB4101B0FBF1F080BD83
:101BE0000A6810A3C2F340429A5C41F20023C0F29B
:101BF0007A03B3FBF2F250430968490248BF80BD43
:101C00004AF6AB214000CAF6AA21A0FB0101480810
:101C100080BD00BF02030405060708090A0B0C0D6E
:101C20000E0F1010010200002DE9F04182B00446B1
:101C3000007841F21C06C007C4F202064AD03068A0
:101C400010F0805808D1306840F080503060306823
:101C500000F080500190019847F20007C4F200079D
:101C60003868C00512D4386840F480703860FFF7D7
:101C7000A9FE05463868C00508D4FFF7A3FE401B3F
:101C80006428F7D9032002B0BDE8F081706810F431
:101C9000407012D0616801F4407188420DD07068C4
:101CA00040F24042C4F24222012320F4407113600A
:101CB0000023C0071360716029D17068616820F447
:101CC00040700843B8F1000F706003D1306820F015
:101CD000805030602068810707D556F8181CA2682C
:101CE00021F44041114346F8181CC00603D40020DB
:101CF00002B0BDE8F08156F8180CE16820F48000CD
:101D0000084346F8180C002002B0BDE8F081FFF748
:101D100059FE054641F2883770688007CDD4FFF739
:101D200051FE401BB8424FF00300F5D9ECE700002C
:101D30002DE9F04381B0002800F0898042F20008CC
:101D4000C4F202080446D8F800000D4600F007006F
:101D500088420CD2D8F8000020F007002843C8F8C9
:101D60000000D8F8000000F00700A8426FD12068FA
:101D700041F204098107C4F2020917D5410705D5CC
:101D8000D9F8001041F4E061C9F80010010705D549
:101D9000D9F8001041F46051C9F80010D9F80010CA
:101DA000A26821F0F0011143C9F80010C00745D125
:101DB000D8F8000000F00700A8420CD9D8F80000BD
:101DC00020F007002843C8F80000D8F8000000F011
:101DD0000700A8423BD12068410707D5D9F8001079
:101DE000E26821F4E0611143C9F80010000708D54A
:101DF000D9F80000216920F4605040EAC100C9F818
:101E0000000000F079F8D9F8001044F2EC42C1F378
:101E10000311C0F60002515C40F2040220FA01F105
:101E200040F21800C2F200000068C2F20002116025
:101E3000FFF7F0FD002001B0BDE8F08360680228E4
:101E400009D0012829D159F8041C890307D401209D
:101E500001B0BDE8F08359F8041C8901F7D5D9F821
:101E6000001021F003010843C9F80000FFF7AAFDA4
:101E7000064641F2883700BFD9F80000616800F0DB
:101E80000C00B0EB810F93D0FFF79CFD801BB84294
:101E9000F2D9032001B0BDE8F08359F8041C89078A
:101EA000D5D5DCE740F20400C2F2000000687047BC
:101EB00080B5FFF7F7FF41F20401C4F2020109689F
:101EC00044F2FC42C1F30221C0F60002515CC8405A
:101ED00080BD000080B5FFF7E5FF41F20401C4F2C8
:101EE0000201096844F2FC42C1F3C221C0F60002BB
:101EF000515CC84080BD000041F2040CC4F2020CE9
:101F0000DCF8003003F00C00082841F20020C0F299
:101F10007A0018BF7047C3F383420AA18A5CD903D1
:101F200005D440F60010C0F23D0050437047DCF885
:101F3000001008A3C1F34041595C5043B0FBF1F0DD
:101F4000704700BF02030405060708090A0B0C0DC1
:101F50000E0F1010010200002DE9F04182B00028A0
:101F600000F0C4800446007841F20006C007C4F2C5
:101F7000020643D0706800F00C00042817D0706887
:101F800000F00C00082802D17068C0030FD4656807
:101F90002DB1B5F5A02F10D0B5F5803F11D0306828
:101FA00020F480303060306820F480200CE030680D
:101FB000800323D5606808BB98E0306840F4802037
:101FC0003060306840F480303060FFF7FBFC002D5B
:101FD000054610D03068800310D4FFF7F3FC401B97
:101FE0006428F7D904E100BFFFF7ECFC401B64282C
:101FF0004FF0030077D830688003F5D4207880074D
:1020000018D5706810F00C0F07D0706800F00C0045
:10201000082826D17068C00323D43068800702D511
:102020002069012862D13068616920F0F80040EA37
:10203000C1003060207800073DD5A06938B300208A
:10204000C4F242200121C0F88014FFF7BBFC054612
:10205000706A80072DD4FFF7B5FC401B0228F7D922
:10206000C6E02069002840F20000C4F2422000F0DF
:10207000968001210160FFF7A5FC054630688007C6
:10208000D1D4FFF79FFC401B0228F7D9B0E0002015
:10209000C4F242200021C0F88014FFF793FC0546EB
:1020A000706A800707D5FFF78DFC401B0228F7D91F
:1020B0009EE001F05BF9207840071BD4E5698DB103
:1020C000706800F00C00082847D1012D0ED0706810
:1020D000216A00F480328A4208D1616A00F47010EB
:1020E000884203D1002002B0BDE8F081012002B097
:1020F000BDE8F081F06910F0805808D1F06940F037
:102100008050F061F06900F080500190019847F232
:102110000007C4F200073868C00510D4386840F4DE
:1021200080703860FFF74EFC054600BF3868C00578
:1021300005D4FFF747FC401B6428F7D958E0E56851
:102140001DB1052D3CD0012D3ED0306A20F001009C
:102150003062306A20F0040039E00027C4F24227E0
:1021600000203866FFF72EFC022D05460CD100BF7B
:102170003068800154D5FFF725FC401B02284FF042
:102180000300F5D9AFE700BF30688001AAD5FFF79B
:1021900019FC401B02284FF00300F5D9A3E70021EA
:1021A0000160FFF70FFC0546306880077FF542AFFE
:1021B000FFF708FC401B02284FF00300F4D992E718
:1021C000306A40F004003062306A40F00100306252
:1021D000FFF7F8FB002D054641F2883714D000BF09
:1021E000306A800713D4FFF7EDFB401BB842F7D9E4
:1021F000032002B0BDE8F081FFF7E4FB401BB842CA
:102200004FF003003FF66FAF306A8007F4D4B8F1A7
:10221000000F7FF453AFF06920F08050F0614DE77C
:10222000206AB0F5803F05D17168A26821F40031C1
:10223000114371607168626A21F47411104308439C
:10224000706001203866FFF7BDFB044630688001EE
:102250003FF548AFFFF7B6FB001B02284FF0030025
:10226000F4D940E746F60040C4F2000050F82100DF
:1022700080B2704790B246F60042C4F2000242F8C3
:1022800021007047704700007047000010B50446F9
:1022900000680168C9071CBF41685FEAC17100D1CD
:1022A00010BD4068400704D42046FFF7EBFF012033
:1022B00007E02046FFF7E8FF20686FF00401416067
:1022C000042060742068416821F00101416010BD64
:1022D00010B540F60040C4F2010080210122012423
:1022E000FFF76AFB01F024FE40F67811C2F200010C
:1022F000086040F27800C2F20000047010BD0000D7
:1023000010B5044600680168890744BF40685FEA69
:10231000807009D440F21440C4F201004FF400313F
:1023200001600120607410BD2046FFF7D1FF2068D6
:10233000416821F002014160ECE700002DE9F04323
:1023400081B0064600284FF0010074D00C460029E9
:1023500071D030684068400756D43046914601F04D
:10236000F9F807464BF2C530C9F2A210A7FB0001ED
:10237000C80A4FF4616100FB117148F68902C8F682
:102380008802A1FB02235A0962701201A2EB5312C8
:10239000A1EB820145F28012C0F201029742A170C6
:1023A00036D344F20751CCF22E21A7FB01124AF694
:1023B000AB21CAF6AA21A0FB0113190901EB4101C7
:1023C000A0EBC100207030464FEA124801F0BAF885
:1023D000C51B98BF4FF0FF35411C4AF68061CFF610
:1023E000FE7108FB017708BF05463046394601F00B
:1023F0000FF948B9681C07BF30464FF0FF31E919A3
:10240000304601F0EFF8C8B1012001B0BDE8F0831B
:102410002070B9F1000F18D0207800F0CFFF61785C
:102420002070084600F0CAFFA1786070084600F0EE
:10243000C5FFA070002001B0BDE8F08330464146E2
:1024400000F0D4FFB9F1000FE6D1002001B0BDE8E3
:10245000F0830000B0B5002842D00446407C20B98B
:1024600000202074204600F047F8022060742046C7
:1024700000F0A0F978BB204601F00AF858BB2268AA
:10248000A068536846F62C41C4F2000123F007030C
:10249000536018B14A6822F001024A600A6822F4C7
:1024A0006072104308606068411C05D1012001255D
:1024B000FFF740FBF0B1013821688A6822F00F0273
:1024C00042EA10428A60CA6860F30F022046CA607E
:1024D00000F0F6FF30B10125042060742846B0BD3D
:1024E0000120B0BD40F201100025A4F80D0001202C
:1024F000E573F2E70420F0E780B582B0006842F6A9
:102500000001C4F20001884201D002B080BDFFF793
:10251000E7FA41F21C00C4F202000168002241F017
:10252000006101600068012100F0006001900198E5
:1025300040F23C40C4F24220016003200021FFF73A
:10254000BBFA0320FFF7B4FA292000210022FFF78D
:10255000B3FA2920FFF7ACFA02B080BDF0B581B024
:10256000044600208DF80200ADF800004FF0010095
:102570009CB10D4689B1207C01284FF002000CD09F
:102580000121164621746074694620460022FFF737
:10259000D5FE00284FF0010001D001B0F0BD9DF83C
:1025A00000009DF801104FF461679DF80220784308
:1025B000C1EB011100EB81012878002E01EB02062E
:1025C0000ED000F0F1FE69784743084600F0ECFEBB
:1025D000C0EB0011A87807EB810500F0E5FE07E0ED
:1025E0006A7800FB07F1A878C2EB021201EB8205C2
:1025F000291801F58030B14238BF00F5A3412046CB
:1026000000F0F0FF30B1042060740020207401203D
:1026100001B0F0BD2068416821F00201416001680D
:1026200041F00201016040F20040C4F20100016883
:1026300041F400310160816841F400318160012082
:1026400060740020207401B0F0BD0000B0B50446F5
:1026500000284FF0010058D00D46002955D0207CAD
:1026600001284FF0020008BFB0BD01212174607441
:10267000E8786AB100F098FE6978E073084600F0E7
:1026800093FEA9786073084600F08EFE024603E0D0
:10269000E0736878AA786073617BE07BA27300F0D6
:1026A0006BFF20732870204600F054FF45F69071B0
:1026B000C0F20101884224D344F20751CCF22E210A
:1026C000A0FB0112110C40F2A3225143A0EBC11553
:1026D0002046294600F09CFF28B1042060740020A9
:1026E00020740120B0BD204600F02CFFA84208D283
:1026F00000F5803000F5A341204600F073FF00286C
:10270000EBD10120607400202074B0BD70B5044688
:1027100000284FF001004BD00D46002948D0207C06
:1027200001284FF0020008BF70BD012121746074C0
:1027300028788AB100F038FE69784FF4616200FBB6
:1027400002F6084600F030FEC0EB0011A87806EB58
:10275000810500F029FE08E06A784FF46161414389
:10276000A878C2EB021201EB8205054420462946F7
:1027700000F04EFF28B10420607400202074012076
:1027800070BD2068416821F005014160204600F0DD
:10279000D9FEA84208D200F5803000F5A3412046BA
:1027A00000F020FF0028E6D1012060740020207492
:1027B00070BD0000B0B5A8B104460068416821F0C2
:1027C00008014160FFF7FEF8054600BF2068406839
:1027D000000709D4FFF7F6F8401BB0F57A7FF5D96A
:1027E0000320B0BD0120B0BD0020B0BD4EF21000EE
:1027F000CEF20000016841F0020101607047000064
:1028000080B500F0C7FF80BD4EF21000CEF2000090
:10281000016821F00201016070470000704700006C
:102820007047000010B590F83C20012A4FF00202DA
:1028300031D0012380F83C3080F83D200268D2F886
:1028400004E0D2F808C00C682EF07003234340F275
:10285000FF74C4F20004A242536005DCB2F1804F61
:102860000ED040F2004307E042F60043C4F20103F9
:102870009A4205D040F60003C4F200039A4204D104
:1028800049682CF08003194391600121002280F8EF
:102890003D1080F83C20104610BD0000002804BF09
:1028A0000120704710B5044690F83D0028B900207B
:1028B00084F83C00204600F01FF8022084F83D0018
:1028C0002068211D00F0CAFF012084F8460084F82A
:1028D0003E0084F83F0084F8400084F8410084F80A
:1028E000420084F8430084F8440084F8450084F8EA
:1028F0003D00002010BD000080B582B0006840F6A9
:102900000001C4F20001884201D002B080BD41F252
:102910001C00C4F202000168002241F004010160C1
:102920000068012100F00400019001981E20FFF7CB
:10293000C3F81E20FFF7BCF802B080BD90F83D1030
:1029400001291CBF01207047022180F83D1000685A
:1029500040F2FF72C168C4F20002904241F00101EE
:10296000C16005DCB0F1804F0ED040F2004107E0BD
:1029700042F60041C4F20101884205D040F6000150
:10298000C4F20001884206D1816801F007010629DE
:1029900004BF00207047016841F001010160002080
:1029A0007047000010B5044690F83C0001284FF035
:1029B000020008BF10BD012284F83C2084F83D00CD
:1029C00020684FF6777382689A4382600A683F2ACC
:1029D00014DD5F2A18DD602A28D0B2F5005F2DD003
:1029E000702A40D1D1E9012CCB68614600F07CFF10
:1029F0002068816841F07701816034E01F2A0FDC94
:102A000092B1102A10D02EE0402A23D0502A2AD189
:102A10004B68CA68194600F07BFF2068502120E00F
:102A2000202A01D0302A1ED111461AE04B68CA680C
:102A3000194600F07FFF2068602112E0D1E9012CE7
:102A4000CB68614600F050FF2068816841F4804106
:102A5000816008E04B68CA68194600F059FF206899
:102A6000402100F04DFF012084F83D00002084F853
:102A70003C0010BD7047000010B5044600680169B5
:102A8000890744BFC1685FEA817138D42068016951
:102A9000490744BFC1685FEA41713CD420680169BD
:102AA000090744BFC1685FEA017141D42068016928
:102AB000C90644BFC1685FEAC16145D420680169A5
:102AC000C9071CBFC1685FEAC1714AD120680169AA
:102AD000090644BFC1685FEA016149D42068016901
:102AE000490644BFC1685FEA416148D42068016972
:102AF000890644BFC1685FEA816147D410BD6FF0A9
:102B000002010161012121778069800745D02046BB
:102B1000FFF7B0FF47E06FF0040101610221217768
:102B2000806910F4407F41D02046FFF7A3FF43E0C7
:102B30006FF00801016104212177C06980073ED050
:102B40002046FFF797FF40E06FF010010161082178
:102B50002177C06910F4407F3AD02046FFF78AFF02
:102B60003CE06FF001010161204600F03FF8ADE765
:102B70006FF0800101612046FFF750FEAEE76FF075
:102B800040010161204600F041F8AFE76FF02001FD
:102B900001612046FFF744FE10BD204600F022F8F8
:102BA000204600F021F8002020776FE7204600F053
:102BB00019F8204600F018F8002020776EE720462C
:102BC00000F010F8204600F00FF8002020776DE7A5
:102BD000204600F007F8204600F006F80020207795
:102BE0006CE700007047000070470000006840F686
:102BF0000001C4F20001884218BF704740F604206B
:102C0000C2F20000016801310160704770470000A6
:102C10007047000070470000B0B582B001680546FB
:102C20000868CA684C6900F02F03202B02F02003CB
:102C300005D123B1284600F005FF02B0B0BD5FEA20
:102C4000007C1EBF04F0010E02F4907414EB0E041D
:102C500024D12B6B1040C20617D5012B15D10020B3
:102C60000190086801904868019001984869400601
:102C70001CD4A88DEA8DEB8D002B1CBF801A5FEA57
:102C8000004240F09A8002B0B0BD010636D4400642
:102C9000F9D5284600F0C0FE02B0B0BDC10718BF8C
:102CA00012F480712FD1410733D439E0A86B026848
:102CB000526893B2002BE6D0AC8DA342E3D2EA85F2
:102CC0008269202A16D0CA6822F48072CA604A69D2
:102CD00022F001024A614A6922F040024A61202240
:102CE00085F83E2000222A63CA6822F01002CA60DA
:102CF000FEF75CFCA88DE98D401A6FE0284600F0D5
:102D00005DFF02B0B0BD296C41F0010129644107AB
:102D100006D5BEF1000F03D0296C41F002012964F1
:102D2000810706D5BEF1000F03D0296C41F00401E4
:102D30002964BCF1000F06D55EEA030103D0296CBB
:102D400041F008012964296C00299CD010408006BC
:102D500002D5284600F076FE28684069296C00F00C
:102D6000400001F00801401820D0284600F03EFE47
:102D700028684169490614D5416921F04001416143
:102D8000A86B70B143F65911C0F600014163FEF71C
:102D90002DFC00283FF477AFA86B416B884702B049
:102DA000B0BD2846FFF736FF02B0B0BD2846FFF79A
:102DB00031FF0020286402B0B0BDCA6822F49072CE
:102DC000CA604A6922F001024A61202285F83E2049
:102DD00000222A63CA6822F01002CA6081B2284623
:102DE000FFF716FF02B0B0BD002804BF01207047F6
:102DF00010B5044690F83D0028B9002084F83C0046
:102E0000204600F021F8242084F83D002068C168A5
:102E100021F40051C160204600F06EFE2068016977
:102E200021F490410161416921F02A014161C168A9
:102E300041F40051C16000202021206484F83D103D
:102E400084F83E1010BD0000B0B586B0006844F2B2
:102E5000004140F60004C4F20001C4F201048842BB
:102E60004FF00001CDE90411CDE902112BD043F65A
:102E70000001C4F20101884257D141F21800C4F2A6
:102E80000200016841F480410160016801F4804161
:102E900001910199016841F004010160006802A9F3
:102EA00000F00400019001984FF40070029002209D
:102EB0000390032005902046FEF778FC4FF48060D5
:102EC0000290252522E041F21800C4F20200416878
:102ED00041F400314160416801F4003101910199F0
:102EE000016841F004010160006802A900F00400DB
:102EF0000190019804200290022003900320059085
:102F00002046FEF753FC0820262502900020CDE93C
:102F1000030002A92046FEF749FC284602210022B0
:102F2000FEF7CAFD2846FEF7C3FD06B0B0BD00009F
:102F300010B590F83E30202B0BD100294FF0010442
:102F400018BF002A01D1204610BD90F83C30012B5B
:102F500001D1022010BD0123002480F83C3004631D
:102F600000F012FE204610BD80B5006843F6000157
:102F7000C4F20101884208BFFEF7C4F880BD00001A
:102F80002DE9F04381B0044690F83D0020280BD194
:102F90000E4600294FF0010055D01746002A52D0A6
:102FA00094F83C00012803D1022001B0BDE8F08371
:102FB000012084F83C004FF0000921201D46C4F890
:102FC000409084F83D00FEF7FDFCA784E784A168EB
:102FD0000746B1F5805F07D1206900281CBF304645
:102FE0004E46B046064601E04FF0000884F83C909B
:102FF00007E000BF16F8010B21684860E08C01383B
:10300000E084E08C80B1204680213A462B4600F0D7
:10301000FFFD80B9002EEDD138F8020B21686FF367
:103020005F2048600026E9E7204640213A462B46CB
:1030300000F0EEFD18B1032001B0BDE8F0832020C0
:1030400084F83D00002001B0BDE8F08370B504466F
:1030500090F83D00202808D14FF0010589B31346B0
:103060007AB394F83C00012801D1022070BD012000
:1030700084F83C00002521202162A384E384256498
:1030800084F83D002268606B43F6B51C43F6E11EF0
:1030900043F66916C0F6000CC0F6000EC0F6000636
:1030A0000432C0E90ACEC0E90C65FEF7F1FA2068E7
:1030B0006FF04001016084F83C50416941F08001AB
:1030C0004161284670BD0000704700007047000055
:1030D000FEE700002DE9F04186B0002641F218001D
:1030E000CDE90466CDE90266C4F20200016840F64B
:1030F000004441F0100101600168C4F2010401F0D4
:103100001001019101990168002241F02001016044
:1031100001684FF4C07801F0200101910199016824
:1031200041F004010160016801F00401019101997D
:10313000016841F00801016000684FF4C07100F0BF
:103140000800019001982046FEF736FC4FF4067007
:1031500002900020C1F2210002AD03900127204619
:1031600029460497FEF722FB0220059020462946B7
:10317000CDE902870496FEF719FB092004210022FD
:10318000FEF79AFC0920FEF793FC0A200421002296
:10319000FEF792FC0A20FEF78BFC17200321002289
:1031A000FEF78AFC1720FEF783FC06B0BDE8F0812D
:1031B00080B582B000208DF80600ADF804000090C4
:1031C00040F6840042F60001C2F20000C4F20001A1
:1031D0004FF0FF324FF4807380E80E00FFF73AF9AA
:1031E00088BB40F68400C2F200000121FFF73AF8E4
:1031F00041F22211884224D00020ADF804008DF85D
:10320000060040F68400C2F2000001A90122FFF787
:103210007DFAC0B940F20110C0F20100009040F602
:103220008400C2F2000069460122FFF70FFA50B98C
:1032300040F68400C2F20000012141F22212FFF7A1
:1032400019F802B080BDFDF757FF000080B586B0C9
:1032500040F6980040F600020021C2F20000C4F2DD
:103260000002072340F2E73CCDE90411CDE9021149
:10327000CDE90011C0E90023C0E9021C01618161B0
:10328000FFF70CFBC0B94FF48050029040F6980055
:10329000C2F2000002A9FFF785FB68B90020CDE962
:1032A000000040F69800C2F200006946FFF7BAFA43
:1032B000002804BF06B080BDFDF71EFF80B540F6B4
:1032C000E00043F60001C2F20000C4F20101002355
:1032D0004FF00C0C4FF4E13280E80E00C0E90333EC
:1032E000C0E905C3C361FFF77FFD002808BF80BDAB
:1032F000FDF702FF80B540F6241044F20041C2F20F
:103300000000C4F2000100234FF00C0C4FF4E13236
:1033100080E80E00C0E90333C0E905C3C361FFF7CD
:1033200063FD002808BF80BDFDF7E6FEFEE7000054
:10333000FEE7000000F0070080F00703042B28BF21
:1033400004234FF0FF3C03380CFA03F338BF00208E
:10335000994381400CFA00F022EA000008437047CC
:1033600020BF00BF704700007047000081B040F2EE
:103370000400C2F20000006844F6D351C1F26201B9
:10338000A0FB0101480A009000BF0098411E0028E0
:103390000091F9D101B0704780B540F68400C2F2C7
:1033A0000000FEF7ADFF80BD010901EB810100F0D7
:1033B0000F0000EB4100C0B270470000A0F10A010D
:1033C0004CF6CD43CAB2CCF6CC43A2FB0323DA08B9
:1033D00002EB8202A1EB4201012202EBD302092897
:1033E00088BF41EA0210C0B2704700002DE9F041E9
:1033F0000446407BA27B94F80F8000293CD00E4607
:10340000012741F2AA5502E00132013E34D00C28D6
:10341000FBD807FA00F1294208D01E2AF4D90C285B
:1034200009D108F1010801200122EEE711F4256F0E
:1034300004D01D2AE8D901300122E6E70228E4D1B0
:103440001B2A02D801320220DFE71D2A0FD01C2AD6
:1034500010D11FFA88F000F053F800284FF0020056
:103460004FF01D0208BF032008BF0122CDE7012253
:103470000320CAE70220C8E76073A273C1B2D2B2C8
:10348000404684F80F8000F077F82073BDE8F081A3
:10349000B0B50446FEF796FA054600BF20684168BD
:1034A000890607D4FEF78EFA401BB0F57A7FF5D96E
:1034B0000320B0BD416841F0100141600020B0BD63
:1034C000B0B504460068416821F010014160FEF784
:1034D00079FA054620684068800607D4FEF772FA3C
:1034E000401BB0F57A7FF5D90320B0BD0020B0BDF8
:1034F00080B540F68400C2F20000FEF7C7FE80BD32
:1035000081071CBF0020704745F62941CCF28F216E
:10351000484345F628424FEAB001C0F28F2291425B
:103520004DF20B724FF000034FF000014FEA3010E4
:10353000C0F2A30288BF0121904238BF012341EAB3
:10354000030070470068016A406A80B240EA0140A7
:103550007047000002689169D2F81CC0936983EA41
:10356000010000041CBFD2F81CC019461FFA8CF0E1
:1035700040EA01407047000080B5172301FB03FCBF
:1035800048F63963C3F6E303ACFB033C4FF4FA633C
:10359000032938BF40F2CF7303EB000E48F21F53EC
:1035A000C5F2EB13AEFB033140F2D27338BF40F2E9
:1035B000D473184400EB9E00A0EB511000EBD11027
:1035C000104444F6251100EB5C00C2F29241A0FBCE
:1035D0000112811A02EB51018908A1EBC1010844D3
:1035E00080BD0000B0B50D460446FFF751FF00282E
:1035F0001CBF0120B0BD2068290C0162A9B2416244
:103600002046FFF75DFF002818BF0120B0BD000075
:10361000B0B50D460446FFF73BFF00281CBF012054
:10362000B0BD2068290C8161A9B2C1612046FFF7B5
:1036300047FF002818BF0120B0BD00007047000000
:1036400080B540F66C13C2F200031870881C5870E5
:103650000020586040F684009A70C2F200001946BB
:103660000022FEF77BFF80BD81B02DE9F04382B0E0
:1036700040F27C06C2F200060C4696F83912174654
:1036800080468807099306D56420FEF739F896F836
:1036900039128807F8D441F0020086F83902002078
:1036A00086F84E05C6F84805FEF78CF906F5317523
:1036B000C6F8440528464FF42071A6F84C45FCF79F
:1036C00038FDE94609A801905FB1284601990A1D15
:1036D000019209684022FCF737FD013F00F14000EC
:1036E000F4D106F5117041468022FCF72DFD00F063
:1036F0001FF8012C09DB0A340A20FEF701F896F8BE
:103700004E0578B90A3C0B2CF6DA28464FF42071A6
:10371000FCF70FFD96F8390200F0FD0196F84E0512
:1037200086F83912CD4602B0BDE8F04301B07047CB
:10373000B0B5054640F27C0040F6E004C2F200005D
:10374000C2F2000400F1080120460122FFF7F0FB5D
:10375000606B90F82100012803D00A20FDF7D0FF0C
:10376000F6E72846FCF7FCFC82B220462946FFF724
:103770006DFC606B90F82100012808BFB0BD00BF50
:103780000A20FDF7BDFF606B90F821000128F7D1FA
:10379000B0BD0000B0B501380024B4EB106F1CBF01
:1037A0000120B0BD4EF21005CEF2000568604FF06A
:1037B000FF300F2100F088FA0720AC602860204617
:1037C000B0BD000080B5FEF703F980BD70B594B0C0
:1037D0000AAC20462821FCF7ACFC052000250A9005
:1037E0004FF480300226CDE90B050121CDE91160AF
:1037F00020460995CDE90755CDE90555CDE9035595
:10380000CDE90155CDE90D111395FEF7A5FBC8B91A
:103810000F20CDE90506802007904FF48060CDE9A8
:10382000080505A80021FEF783FA58B90120019088
:103830004FF48070029001A8FEF7F6F9002804BF4B
:1038400014B070BDFDF758FC7047000080B540F61D
:103850009800C2F20000FFF70FF980BD10B540F2EA
:10386000FF7E0368C4F2000E42F6004C7045C4F2BD
:10387000010C05DCB0F1804F0AD040F2004203E0B9
:10388000604505D040F60002C4F20002904203D128
:103890004A6823F070031343704505DCB0F1804F94
:1038A0000AD040F2004203E0604505D040F6000235
:1038B000C4F20002904203D1CA6823F44073134358
:1038C00023F080024B69D1F800E08C681A43604510
:1038D0000260C462C0F828E002D10969CCF8301057
:1038E0000121416110BD0000D0F808C011432CF443
:1038F0007F4C41EA032141EA0C01816070470000DE
:10390000826822F07002114341F007018160704724
:10391000D0F820C0036A23F001030362836923F017
:10392000F00343EA02122CF00A0319438261016298
:1039300070470000036A23F0100303628369D0F824
:1039400020C023F4704343EA02322CF0A00343EA80
:10395000011182610162704780B5406A0021C18512
:10396000C184FFF757F980BD10B5446A20684069EB
:1039700094F83D10212907D110F0800004D00020D8
:10398000E084204600F054F82068406994F83E1026
:10399000222907D110F0400004D00020E085204605
:1039A00000F024F8206C40F0100020642046FFF75F
:1039B00031F910BD80B50168406A096889060BD4E9
:1039C0000021C1840068416921F080014161C16822
:1039D00041F04001C16080BDFFF776FB80BD000073
:1039E00080B5406AFFF772FB80BD00000168CA68BD
:1039F00022F49072CA604A6922F001024A61026BA5
:103A0000012A03D1CA6822F01002CA60202180F87E
:103A10003E1000210163704780B50168CA6822F03A
:103A20004002CA60202180F83D10FFF74DFB80BDA9
:103A30000168CA6822F0C002CA60202180F83D10E7
:103A40007047000080B582B090F83E1022291ED148
:103A50008268B2F5805F02D10169002940D0816A95
:103A6000B2F5805F07D00AB9026922B102685268D4
:103A700002F07F0201E0026852680A700121826A46
:103A800011448162C18D01390A04C18501D002B09F
:103A900080BD0168CA6822F02002CA60CA6822F4A8
:103AA0008072CA604A6922F001024A61202280F8CD
:103AB0003E20026B012A1BD100220263CB6823F057
:103AC0001003CB600B68DB0605D501920A680192F2
:103AD000496801910199818DFFF79AF802B080BD84
:103AE0000168826A49686FF35F2111800221C6E78D
:103AF000FFF73AFA02B080BD10B504460068D4E979
:103B000002C22369016921F44051114301616169D5
:103B100043EA0C021143C26841F20C639A43114319
:103B2000C1604169A26921F44071114343F600026A
:103B3000C4F201029042416102D0FEF7B9F901E0FE
:103B4000FEF7C8F96268192148439100B0FBF1F013
:103B500048F21F51C5F2EB11A0FB01235A096FF087
:103B6000630302FB0300322303EB0010A0FB0101FF
:103B7000F02303EA5113206803EB0212C1F343114F
:103B80001144816010BD000081628285C2850021E0
:103B90002222016480F83E20026880F83C10D06840
:103BA00040F48070D060506940F001005061D068EE
:103BB00040F020010020D1607047000090F83D10D7
:103BC000212923D18168B1F5805F01D1016931B12B
:103BD000016A02684B1C03620978516007E0016AC0
:103BE000036831F8022B6FF35F225A600162C18CC7
:103BF00001390A04C18418BF70470068C16821F008
:103C00008001C160C16841F04001C160704700009F
:103C10002DE9F0410446006800680840884202D15E
:103C20000020BDE8F0811D460E4690465F1C04E072
:103C3000206800683040B042F2D0002FF8D02DB19B
:103C4000FDF7C0FEA0EB0800A842F1D92068C168CA
:103C500021F4D071C160416921F00101416120204E
:103C600084F83D0084F83E00002084F83C000320E6
:103C7000BDE8F08180B540F6E000C2F20000FEF73A
:103C8000CBFF80BD80B540F62410C2F20000FEF7E5
:103C9000C3FF80BDFEE70000002848BF704700F06A
:103CA0001F01012202FA01F14EF200124009CEF288
:103CB000000242F8201070474EF60C50CEF2000081
:103CC0000068C0F3022070474EF6145300F00F0254
:103CD000CEF2000309011A4400F16043B0F1FF3F46
:103CE000C8BF03F564421170704700004EF60C51D6
:103CF000CEF200010A684FF6FF031A4060F30A2271
:103D000042F0806040F0FD700860704780B582B07E
:103D1000019040F6E000C2F2000001A901224FF636
:103D2000FF73FFF72DF9019802B080BD10B540F682
:103D30000044C4F2010420464FF480710122FDF7D3
:103D40003BFE3220FDF7DCFC20464FF48071002260
:103D5000FDF732FEFEF758FD01200121FDF7C6FEFA
:103D6000FEF744FDFFF732FD20464FF4807101223B
:103D7000FDF722FE3220FDF7C3FC20464FF4807190
:103D80000022FDF719FE00F0D3F840F60021C2F240
:103D90000001086010BD0000FDF728FEFFF716FDCA
:103DA000FFF798F9FFF78AFAFFF7A4FAFFF74EFA40
:103DB000FFF7FEF94FF47A70FDF7A2FC40F6980089
:103DC000C2F20000FEF7BAFD40F66810C2F2000031
:103DD00040F67415017842788378C2F2000541A05C
:103DE00029706A70AB7000F0A9F840F68406C2F240
:103DF0000006304629460022FEF788FC28786978BC
:103E0000AA78FFF71DFC40F6781740F6800A40F2CA
:103E1000780B40F60024C2F2000747F23158C2F294
:103E2000000AC2F2000BC2F200044EF6612907E05C
:103E300040F60040C4F2010080210022FDF7BCFDE5
:103E4000FFF774FF06E000BF00F072F82168401A27
:103E50004845EDD2304629460022FEF76FFA0A2087
:103E6000FDF74EFC00F064F83968401A4045EBD38A
:103E700040F66B10C2F20000007801280CD140F629
:103E80006B110020C2F20001087040F20800C2F27B
:103E900000001EA1FDF7C2FA9AF8000001280CD11B
:103EA00000208AF8000040F2080040F64401C2F207
:103EB0000000C2F20001FDF7B1FA9BF800000128F2
:103EC000C2D128786978AA7800238BF80030FFF7F0
:103ED000B7FB40F60040C4F201004FF48071FDF7DB
:103EE00063FDB1E7757365722076616C7565733A31
:103EF000200D0A2020683A2564202C206D3A256484
:103F0000202C20733A2564200D0A00006368656345
:103F10006B20796F75722063617220706C616365CC
:103F20002C64616E676F726F75730D0A000000007C
:103F300040F60420C2F20000006870470FB4054B41
:103F400010B503A9044A029800F04CF810BC5DF8C3
:103F500014FB00000D3D0008000000200FB47CB5EC
:103F60000C0009AD01D0611E00E00021CDE9000187
:103F7000064B6A462946089800F034F8002C02D017
:103F8000009A002111707CBC5DF814FB47440008C6
:103F90000FB4084B10B504A902AA039800F022F848
:103FA000044602A9002000F059FA204610BC5DF832
:103FB00014FB00005D44000802E008C8121F08C19D
:103FC000002AFAD170477047002001E001C1121F9A
:103FD000002AFBD1704730380A2801D201207047EF
:103FE000002070472DE9FF4F8DB00F460546002693
:103FF00006E025280BD0DDE90F1290476D1C761CDA
:1040000028780028F5D111B03046BDE8F08F0024A3
:10401000A246A1460122EC4900E0044315F8013F05
:10402000203B02FA03F00842F7D128782A2810D062
:104030006FF02F022878A0F13001092914D80AEB7B
:104040008A0102EB410144F0020400EB010A6D1CFD
:10405000F0E701CF5FEA000A03D544F40054CAF147
:10406000000A44F002046D1C28782E2817D115F898
:10407000010F44F004042A280ED06FF02F02287894
:10408000A0F1300109290AD809EB890102EB4101AD
:1040900000EB01096D1CF2E757F8049B6D1C2878B2
:1040A0006C280FD006DC4C2817D068280DD06A2861
:1040B00014D104E0742810D07A280FD10DE044F414
:1040C00000140AE044F4801401E044F440146978D8
:1040D000814202D104F580146D1C6D1C2A786E2A71
:1040E0001FD00CDC632A31D004DC002A8BD0582A84
:1040F00011D1A3E0642A68D0692A0CD165E0732A43
:104100002ED004DC6F2A73D0702A04D19BE0752A6C
:104110006FD0782A6ED01046DDE90F129047761CDA
:1041200050E1C4F30250022806D0032809D0042825
:1041300001CF09D0066045E101CFF117C0E9006168
:1041400040E101CF06803DE106703BE117F8040B2A
:104150008DF8000000208DF80100EB46012003E0FF
:1041600057F804BB4FF0FF3061074FF0000102D455
:104170000DE008F10101884649450FDA8045F8DB7A
:104180001BF808100029F4D108E008F10101884665
:104190008142FADB1BF808100029F6D1DDE90F2374
:1041A000AAEB08008146214600F036F9304400EBC6
:1041B000080604E0DDE90F121BF8010B9047B8F187
:1041C0000108F7D221464846F7E00A21C4F302531A
:1041D0004FF0000B0891022B04D001CFC117032B25
:1041E00009D00AE0FF1D27F00707F7E8020108E001
:1041F00032E01FE020E000B2C117042B01D140B231
:10420000C117031E71F1000307DA4FF0000CD0EB69
:104210000C006CEB01012D2302E0230504D52B23B8
:104220008DF82430012303E0E30701D02023F7E7D2
:10423000984658E00A2110E010210EE010204FF0BF
:10424000000B08900CE010214FF0000B44F0040428
:104250004FF00809089103E008214FF0000B089186
:10426000C4F30253022B04D001CF0021032B06D04C
:1042700006E0FF1D27F00707F7E8020103E080B220
:10428000042B00D1C0B24FF0000823072BD5702AB1
:1042900007D0DDF820C08CF0100C5CEA0B0C05D0C8
:1042A0000EE040238DF82430012308E050EA01039A
:1042B00006D030238DF824308DF82520022398462F
:1042C000DDF820C08CF0080C5CEA0B0C0BD150EA36
:1042D000010301D1630706D530238DF824304FF058
:1042E0000108A9F10109582A04D038A20B9208AAA2
:1042F0000A920BE03AA2F9E75B46089AFCF775FBD5
:104300000B9B9B5C0A9A521E0A92137050EA0102A0
:10431000F2D10A98ADEB000000F1200B600702D546
:1043200024F4803401E04FF00109D94502DDA9EB06
:104330000B0000E0002000EB0B0141440890AAEBC9
:10434000010AE00306D4DDE90F232146504600F0C0
:1043500063F806444FF0000908E009A911F80900C4
:10436000DDE90F12904709F10109761CC145F4DB24
:10437000E0030CD5DDE90F232146504600F04CF850
:10438000064404E0DDE90F1230209047761C0899BE
:10439000481E08900029F5DC08E00A980A99007880
:1043A000491C0A91DDE90F129047761CBBF1000110
:1043B000ABF1010BF1DC21465046DDE90F2300F0A3
:1043C00019F806446D1C1BE6092801003031323310
:1043D0003435363738396162636465660000000041
:1043E000303132333435363738394142434445462B
:1043F000000000002DE9F041044600251E46174646
:10440000880404D405E039462020B0476D1C641EA2
:10441000F9D52846BDE8F0812DE9F0410446002594
:104420001E469046C80301D5302700E020278804A7
:1044300004D505E041463846B0476D1C641EF9D5E9
:104440002846BDE8F0814A68002A06D00A68531C55
:104450000B6010704868401E486070470A68531C23
:104460000B6010707047004040404040404040406A
:104470004141414141404040404040404040404037
:104480004040404040404005020202020202020257
:1044900002020202020202202020202020202020EE
:1044A000200202020202020290909090909010105E
:1044B00010101010101010101010101010101010FC
:1044C0001010020202020202888888888888080880
:1044D000080808080808080808080808080808085C
:1044E00008080202020240006744000800000000C1
:1044F0000000000001020304060708090000000094
:10450000010203042447504747412C25662C2566A9
:104510002C25632C25662C25632C25642C25642CE6
:1045200025662C25662C25630000000050450008F8
:104530000000002020000000B83F0008704500087F
:1045400020000020F00D0000C83F0008000000001F
:10455000000000000024F4002B3938393337383993
:104560003336393936000100100000000000000029
:04000005080000ED02
:00000001FF
